:1000000002308A00442A0000FF00030E8301A10091
:100010000A08A0008A010408A2007708A300780853
:10002000A4007908A5007A08A600831383128C30F7
:100030008400001C1D280C1832288B1E21280B1947
:100040003528220884002308F7002408F800250832
:10005000F9002608FA0020088A00210E8300FF0E0E
:100060007F0E09008A110A1247288A110A124028B5
:100070000A108A100A11820728340C34013406341D
:10008000AB0A0319AC0A0B118A110A1221288E013E
:100090009E308F0058308E000130AD070C108A1151
:1000A0000A1221280C23D222CB20CE29A012EC3A0E
:1000B000483D00003B3084008313000803196E287C
:1000C0000130F800F701F70B6328F80B62284A307B
:1000D000F700F70B69286C28800B60280800420E97
:1000E000F039F7000F300805770488000000081485
:1000F0007928081008000808F700080E0F39F800E2
:1001000008008316081088100811831288100F3019
:1001100083160805F03888008312081500000814BB
:1001200000007B207808C2000810000008140000BE
:100130007B207808C10008100F308316080588005E
:100140008312420EF700F030F70577084104F800FB
:100150007808C100C11B87283F1C88103F188814ED
:100160000000081100000810400EC1000F30C1054A
:100170004108C2006F2040080F39C100C2006F2043
:1001800008000F3083160805880008108810081131
:1001900083128810081108100F30BB005A2001305C
:1001A000AE002E08033C031CDD280330C2006F2084
:1001B0000530BB005A20AE0AD1280230C2006F20A1
:1001C0000530BB005A20AE012E08033C031CF12869
:1001D0002E083820AF00BF012F08C0008120AE0AD2
:1001E000E4288A110A12672AC0308B048E019E30DF
:1001F0008F0058308E0081012D08043C0318FC2824
:10020000AD010B138B138B1B02298A110A127C2A56
:100210003C0B0B290E294030BD000F29BD010130D8
:100220003B02BD073D088038BE00BF013E08C0004C
:10023000812008003A08073A031928290B3A0319C4
:100240002D29063A03193529023A03193B29402979
:100250000130BB00BC0008214529BF010130C000AE
:1002600081200230BB005A2045290130BB000230FA
:10027000BC0008214529BF011030C000812045295C
:100280000130BF003A08C000812008000B08AF0011
:100290008B13831603178C170C140000000003182F
:1002A000782983120C087F390313B00003170D0857
:1002B0000313B10003170F080313B2003008BA008C
:1002C0001A21310803178D000313320803178F001A
:1002D00083168C170C140000000083120313AE0B5E
:1002E000722975298316031778299729831603170E
:1002F00083120C0D0E0D7F390313B00003170D0888
:100300000313B10003170F080313B2003008BA003B
:100310001A21310803178D000313320803178F00C9
:100320008D0A03198F0A03100313AE0B4929AF1B63
:100330008B178A110A12992A8318A1294230840046
:100340008313F701F801F901FA01C201C301C401E5
:10035000C501410840043F043E040319DF29203051
:10036000C6000310BA0DBB0DBC0DBD0DC20DC30DF3
:10037000C40DC50D41084502031DC82940084402AB
:10038000031DC8293F084302031DC8293E08420235
:10039000031CD9293E08C2023F08031C3F0FC302B9
:1003A0004008031C400FC4024108031C410FC50252
:1003B0000314F70DF80DF90DFA0DC60BB12942081B
:1003C0008000840A43088000840A44088000840A6C
:1003D0004508800008000408B2003B30B9009A309C
:1003E000B800CA30B700B6010A30B40083142E300A
:1003F000840083133108BD003008BC002F08BB0007
:100400002E08BA003908C1003808C0003708BF00FC
:100410003608BE009C217808F708031D222A3408FC
:10042000013A0319222A32080319232A0F39340208
:1004300003191C2A0318282AB21B282A321B232A34
:100440002030242AB2013030F7077708BA001A2189
:1004500083103908BD003808BC003708BB003608D7
:10046000BA00C101C001BF010A30BE009C217A0858
:10047000B9007908B8007808B7007708B600B40B5F
:10048000F6298A110A12A42AAA01A901A801A70122
:10049000AC01AB01AD0183161F149F141F159F11F2
:1004A00007309C0083131F30830509120030F800C9
:1004B000831292000030831692001F149F141F15A0
:1004C0009F1183121F10F03097059D05C128B5308C
:1004D000900083160108C7393838810083128B16C3
:1004E00083160C148312AA01A901A801A701AC016B
:1004F000AB010B110C10F4280108AA01A901A801F5
:10050000A7000030A7072B0803182B0FA8070030FF
:1005100003180130A907003003180130AA07523030
:1005200003178D0000308F00031009300313AE0055
:100530004629413084002A08B1002908B000280863
:10054000AF002708AE00EB294830BA001A217A30F4
:10055000BA001A210430AE00FA30BB005A20AE0BAC
:06056000AC2A732A6300BF
:02400E00393F38
:00000001FF
;PIC16F877A
;CRC=0B54  CREATED="12-Ara-20 17:33"
